:02000004FC10EE
:10C00000D1DC4B843410D7730D000000FFFFFFFF1D
:10C01000FFFFFFFF5000000050C000F8A49D00008B
:10C02000A49D0000F45D01F800000000F45D01F83B
:10C03000000000000100000001000000FFFFFFFF02
:10C04000FFFFFFFFFFFFFFFFFFFFFFFFFFFFFFFF00
:10C05000D3F021E330D09FE530009FE530109FE51D
:10C060000140A0E30020A0E3010050E1042080345F
:10C07000FCFFFF3A1C209FE50000A0E3000082E5E2
:10C0800014D09FE514009FE510FF2FE100C014FCC1
:10C0900000C010FC68BD11FC585901F8000011FCEB
:10C0A000DDC000F8642907F03F87002070470000DA
:10C0B000002101604160704710B51D4C2068804729
:10C0C00001280AD16068804728B900F0B7F8606895
:10C0D00080470028F9D01748046110BDFFF7ECFF36
:10C0E00000F0C6F8AFF23700124C20606060A0602C
:10C0F000E0601148FFF7DCFF0F4D616805F10800B3
:10C100008847A16805F110008847E16805F118002B
:10C11000884700F092FFFEE700207047002070473C
:10C1200070470020401CB0F57A7FFBDB70470000B1
:10C13000445901F8105901F8100011FC2B4800680F
:10C1400002F074BD02F092B910B502F031FA002885
:10C1500007D0264C206802F069FD02F029FA002879
:10C16000F8D110BD0120704710B504466068022860
:10C1700008D1E169606900F064F92046BDE810402B
:10C1800002F07FBA10BD38B5002002F072F801202D
:10C1900002F079F8012016490090002315481A464C
:10C1A00002F087F8114D2860F0B1C068002103F05B
:10C1B00067FA00F5F42404F5907428680021C0683B
:10C1C00003F05EFA201A00280EDD286802F02EFD2A
:10C1D0002868C16909B1012038BDC068002103F099
:10C1E0004FFA201A0028F0DC002038BD245901F84D
:10C1F000285901F869C100F8044C0548844204D26A
:10C2000000212160241D8442FBD37047F45D01F8B6
:10C21000F45D01F801F091F968B90021084601F0D8
:10C2200010FC40B900221146104603F0CEFA044833
:10C23000016800210160FEE7704770477047000009
:10C2400000B04AFC10B50446204604E0521E11F826
:10C25000013B00F8013B32B101F0010300F0010C99
:10C2600053EA0C03F2D10AB107F0C4EE204610BD28
:10C27000F74B00221A609A800120411E01EB8111C8
:10C2800003EB011C00EB801103EB0111C1F800C0AE
:10C290008A80401C0228F0DBEF48EE4901624262CE
:10C2A000C26202708262012141707047EA4A40F224
:10C2B000054C0023D06A8188C91E614501D3838063
:10C2C0007047916A21B10860D06A9062D36270476A
:10C2D00090625062D36270472DE9F047DF4F3868B3
:10C2E000C0688047386801697E208847012500249E
:10C2F000DFF86483D8F83000002819D94FF01F09FF
:10C30000DFF85CA339EA040002D13868C0688047CE
:10C310001AF804607E2E20D07D2E1ED03868016968
:10C32000F0B288476D1C641CD8F830008442E9D311
:10C330003868C0688047386801697E208847681C73
:10C3400010F03F0F15D1386801697E2088473868A2
:10C3500001697E20BDE8F0470847386801697D2003
:10C360008847396886F02000C0B209698847AD1C4B
:10C37000D9E7BDE8F08710B5B74C206BC004010CBD
:10C38000B74801F037FAB64A216B50540A44000A04
:10C390005070881C206310BD0146002011F8012B4D
:10C3A000002A04D0401C11F8012B002AFAD1704752
:10C3B00070B503461846FFF7EFFF0546A84C0E2060
:10C3C0002070601C2A461946FFF73CFFA249681CF2
:10C3D000431C0A220B632254FFF7CDFFBDE87040D7
:10C3E0007AE770B59C4C2169491C21610025E16AFE
:10C3F00031B9216AD1B1E1620A6822628D800D6093
:10C400007D281BD07E2815D0E16A40F207438A8838
:10C410009A4206D2237813B180F020002570891D3E
:10C420005054E06A8188491C818070BDBDE870402D
:10C430008CA0BDE7FFF73AFF257070BD012020708A
:10C4400070BD2DE9F84F05468846DFF80C92D9F803
:10C4500010004044C9F810004FF0000AD9F82C0031
:10C4600060B9D9F8200000285DD0C9F82C00016817
:10C47000C9F82010A0F804A0C0F800A0D9F82C003A
:10C480008488861DB8F1040F4FF0010B34DD286855
:10C49000009000F07F41B1F1FA4F49D000F47F02E3
:10C4A000B2F5FA0F44D000F47F43B3F5FA4F3FD012
:10C4B000C0B27D283CD0B1F1FC4F39D0B2F5FC0FB1
:10C4C00036D0B3F5FC4F33D07E2831D0301904225A
:10C4D0006946FFF7B7FE99F8000028B1305D80F09B
:10C4E0002000305589F800A0201D84B22D1DA8F130
:10C4F0000408B8F1040FCADCB8F1000FA8F1010775
:10C5000014D040F2074828787D2841D07E2836D0C4
:10C51000444541D299F8001081B380F02000305595
:10C5200089F800A038E04FA0FFF742FFBDE8F88F80
:10C53000032728787D2817D07E280CD040F20741A9
:10C540008C4215D299F8001089B180F02000305546
:10C5500089F800A00CE024B1D9F82C008480FFF702
:10C56000A5FE89F800A005E089F800B002E030558A
:10C57000601C84B26D1C7F1EDBD2B8E70BE024B1D7
:10C58000D9F82C008480FFF791FE89F800A005E01F
:10C5900089F800B002E03055601C84B26D1C7F1E2B
:10C5A000B1D2BDE8F88F2DE9F0411C252A4E706903
:10C5B000FFF7F2FE0446334871692246FFF742FE58
:10C5C000304F04F1080294424FF0000818DA2E4967
:10C5D000402C0BDBB069FFF7DFFE05462948B16947
:10C5E0002A46FFF72FFE07F8058009E03069E8408A
:10C5F00000F00F00085C38552D1F641C9442E7DBE7
:10C6000007F80480BDE8F0411E48D1E670B5044645
:10C610000E463046FFF7C0FE05463046FFF7C8FE1F
:10C620000F480D2101704470210A8170210CC170E6
:10C63000210E0171401D2A463146FFF703FE0649CF
:10C64000681D0863FFF797FEBDE8704044E60000F0
:10C65000300011FC400411FC5C5901F8205901F82C
:10C66000540C11FC4552523A2057696E646F772082
:10C670006F76657272756E20646574656374656447
:10C680002E2E2E00541C11FC8C4501F810B50520EF
:10C69000F9A1FFF7BBFF002010BD2DE9F0410546D1
:10C6A000F9492022E81D07F079FC30B10520F7A1F7
:10C6B000FFF7ACFF0020BDE8F08195F828000228C4
:10C6C00006D20520F7A1FFF7A1FF0020BDE8F08109
:10C6D000A888242806D20320F9A1FFF797FF00209D
:10C6E000BDE8F081DFF80084002688F801600227A9
:10C6F000FE4C27702022FE49601CFFF7A3FD052099
:10C7000084F8210084F8227084F82360042084F8DF
:10C71000240084F8256084F8266084F8276084F873
:10C72000286084F8296084F82A6003F016F903462B
:10C730001BB31846FFF730FEC2B284F82B2019460F
:10C7400004F12C00FFF77EFD94F82B0000F12C0182
:10C75000481C6754471C2654E01903F000F938447C
:10C7600095F8291001F01901421C215411F0100F05
:10C77000E04809D00121017007E00820DEA1FFF7A1
:10C7800045FF0020BDE8F0810670C8F83020B2F502
:10C79000006F04D90720DFA1FFF738FFFEE7FFF79E
:10C7A000EAFDFFF799FD0024E44D05EBC400406865
:10C7B00000B18047641C042CF7DB0020BDE8F08149
:10C7C00010B50520DEA1FFF721FF002010BD2DE9E7
:10C7D000F8434FF00508841D8088262806D00320E2
:10C7E000DDA1FFF713FF0020BDE8F883657894F81A
:10C7F000231094F8220040EA012694F8251094F8BA
:10C80000240040EA0127601C4FF48C7100F0F2FF15
:10C81000A6F55E41AD3906D04046D5A1FFF7F6FE3C
:10C820000020BDE8F883874206D04046DCA1FFF730
:10C83000EDFE0020BDE8F8830127012D04D0022D74
:10C8400007D0032D12D062E00520BDA1FFF7DEFE68
:10C850005DE003F07FFA28B1DBA1FFF7D7FE0020EF
:10C86000BDE8F883E1A0FFF7A3FD50E0E178A078F0
:10C87000627940EA01202179090441EA026140EA33
:10C880000106E279A179607A41EA0221227A120452
:10C8900042EA006041EA0004E54800948021334602
:10C8A000DCA207F0F1FAE248FFF782FDE0488021C0
:10C8B0004FF48063DFA207F0E7FADD48FFF778FD69
:10C8C000DFF890834FF48060B0EB442F01D9610210
:10C8D00001E04FF48061404607F0D0FBA4B1022C88
:10C8E00001D2254600E0022542462946304603F0A3
:10C8F00058FA28B1D8A1FFF789FE0020BDE8F883D7
:10C900002E44641B002CEAD1D8A0FFF751FD7748D4
:10C910002421017074490F633031401C03F075FA13
:10C9200028B1D8A1FFF772FE0020BDE8F883FFF719
:10C9300022FDFFF7D1FC0020BDE8F88310B56A485E
:10C94000C1780279114305D00F20D4A1FFF75EFE14
:10C95000002010BD654A0C21117001210163FFF711
:10C960000AFDFFF7B9FCD448006880688047FFF7EC
:10C9700064FCFFF74FFC002010BD10B50520CFA1CF
:10C98000FFF744FE002010BD70B5811D8088401F58
:10C9900082B28B78487891F804C040EA0320CB78C3
:10C9A0001B0443EA0C6340EA0304481D44EA000107
:10C9B000114311F0010F0BD01546A64B0146184646
:10C9C000FFF740FCA3482A46214603F006F902E09F
:10C9D000214603F002F920B1BFA1FFF717FE0020A6
:10C9E00070BD4248082101704470210A8170210CF9
:10C9F000C170210E017105203B490863FFF7BBFCA4
:10CA0000FFF76AFC002070BD10B5374CE078217943
:10CA100008430AD04FF40061344803F046F950B19E
:10CA2000B2A1FFF7F3FD002010BD0F20B3A1FFF767
:10CA3000EDFD002010BD2D491E200870012020634F
:10CA4000FFF799FCFFF748FC002010BD10B5811DD1
:10CA50008088401E84B225480A220270491C401C6E
:10CA60002246FFF7EFFB2049601C0863FFF783FCB9
:10CA7000FFF732FC002010BD496E76616C696420BE
:10CA8000436F6D6D616E64009D4501F8496E76617E
:10CA90006C6964206D61676963206E756D62657293
:10CAA00000000000496E76616C69642070726F74DA
:10CAB0006F636F6C2076657273696F6E00000000A3
:10CAC000506172616D657465722052657175657330
:10CAD00074205061636B6574204C656E67746820C8
:10CAE0004572726F720000005C5901F8540C11FC21
:10CAF000BE4501F8F95C01F8556E7265636F676EAB
:10CB0000697A656420666C61736820646576696320
:10CB100065000000496E7465726E616C206572720A
:10CB20006F72202D207265706C795F627566666524
:10CB300072206F76657272756E000000100011FC35
:10CB400046656174757265206E6F7420636F6D70D9
:10CB5000696C656420696E00496E76616C69642059
:10CB60007061636B6574206C656E677468000000AB
:10CB70004750502F496E666F20636F6D6D616E6414
:10CB8000206661696C65642E20496E76616C69640B
:10CB9000204D61676963204E756D6265720000000B
:10CBA0004750502F496E666F20636F6D6D616E64E4
:10CBB000206661696C65642E20496E76616C6964DB
:10CBC0002043524300000000536574206163746980
:10CBD000766520626F6F7420706172746974696F1A
:10CBE0006E206661696C6564000000005365742006
:10CBF00061637469766520626F6F7420706172740E
:10CC00006974696F6E207375636365737366756CA1
:10CC10006C7900007A65726F6F757420737461723D
:10CC2000742025642C206C656E20256400000000B3
:10CC3000941C11FC7A65726F696E67206F757420A1
:10CC400025642062797465732061742061207469A1
:10CC50006D650000500811FC5A65726F696E67209F
:10CC60006F7574206661696C656400005A65726F47
:10CC70006564206F7574207375636365737366757F
:10CC80006C6C7900506172746974696F6E20696EA2
:10CC9000666F206661696C656400000043616E6EBA
:10CCA0006F74207265736574206265666F726520AB
:10CCB000636C6F7365000000205901F853696D7053
:10CCC0006C65207772697465206E6F7420616C6C7E
:10CCD0006F77656400000000577269746520756E97
:10CCE0007375636365737366756C00004572617379
:10CCF00065206661696C65640000000043616E6ECA
:10CD00006F74206572617365207768656E206E6F41
:10CD1000742070726576696F75736C79206F7065B9
:10CD20006E65640010B51220C94908700120C94918
:10CD300008631520C8A1FFF769FC002010BD70B57D
:10CD4000C479C44D287960B1A04205D00F20C8A194
:10CD5000FFF75CFC002070BDCEA0FFF729FB002090
:10CD600070BD204602F030FE28B10720D4A1FFF7A5
:10CD70004DFC002070BD2C711420B54908700120B5
:10CD80002863FFF7F8FAFFF7A7FA002070BD10B587
:10CD9000B04CE0782179084307D002F01AFF50B177
:10CDA000CAA1FFF733FC002010BD0F20CBA1FFF775
:10CDB0002DFC002010BD0020E07020711620A44939
:10CDC000087001202063FFF7D6FAFFF785FA0020EC
:10CDD00010BD10B5C07902F0F3FD20B1C9A1FFF775
:10CDE00015FC002010BD9B49012088601822984B3B
:10CDF0001A700863FFF7BFFAFFF76EFA002010BD44
:10CE000010B500F108038188891E8AB2C179914C5E
:10CE1000A068012805D00F20C1A1FFF7F7FB002073
:10CE200010BDB2F5007F05D90320CAA1FFF7EEFBC4
:10CE3000002010BD184602F0C5FD854900220223DE
:10CE40004FF01A0CA0B1607904280AD0E26081F892
:10CE500000C048702363FFF78EFAFFF73DFA002009
:10CE600010BDE2600720C3A1FFF7D0FB002010BD7A
:10CE70000120E06081F800C04A702363FFF77BFA6D
:10CE8000FFF72AFA002010BD70B500F10803C4793D
:10CE90008088801E82B26F4DA868012805D00F20BF
:10CEA000BEA1FFF7B3FB002070BDE868012805D0E4
:10CEB0000F20C5A1FFF7AAFB002070BD2146184630
:10CEC00002F0DBFD624902231C22C0B1A8790428CC
:10CED0000BD001280FD002280DD003280BD007203B
:10CEE000C5A1FFF793FB002070BD0720C2A1FFF78B
:10CEF0008DFB002070BD0A7048702B6304E0EC705D
:10CF00000A70002048702B63FFF735FAFFF7E4F949
:10CF1000002070BD2DE9F04F87B00027DFF8FCB28C
:10CF2000DBF80000C0688047DFF82881BA46D8F8EF
:10CF30002400002876D0012088F80200D8F8244088
:10CF40002068C8F8240008B9C8F828A0C4F800A0D0
:10CF5000D8F81C0028B34FF000090025A08800284D
:10CF600013DDDBF80000C0688047A088461B802ED8
:10CF700000DD802660193246811D484600F0DBFC4A
:10CF800081463544A088A842EBDCA9F5706047389B
:10CF900003D0A3A0FFF70CFA3BE0A088801EA0807E
:10CFA00002E0A088801EA080A679232E25DDA01D8A
:10CFB0000290A08803909F48049001A80590002546
:10CFC000DFF87492CDF804A059F8351021B102A809
:10CFD0008847012800D10127019A5AB19549A1F546
:10CFE0000060FFF72FF90198C8F83000FFF7C3F988
:10CFF000FFF772F96D1C042DE4DB57B9701E22286F
:10D0000004D898F8011091B1012E10D02046FFF7F6
:10D010003DFBD8F820002060C8F82040D8F8240054
:10D02000002888D188F802A007B0BDE8F08F8349B6
:10D0300051F8201020468847EBE7784CFFF7FEF8C0
:10D040002068C0688047FFF7F9F8FFF763FFF5E74E
:10D05000540C11FC5C5901F8506F776572206F66B3
:10D0600066206E6F7420737570706F7274656400E3
:10D07000416C7265616479206F70656E65642069CA
:10D080006E20646966666572656E74206D6F646596
:10D0900000000000416C7265616479206F70656EFC
:10D0A00065642C2069676E6F72696E67206F7065AA
:10D0B0006E20696E2073616D65206D6F6465000080
:10D0C0004F70656E206661696C656400436C6F73B8
:10D0D00065206661696C65640000000043616E6EE6
:10D0E0006F7420636C6F7365207768656E206E6F58
:10D0F000742070726576696F75736C79206F7065D6
:10D100006E65640053657420736563757269747924
:10D11000206D6F6465206661696C65642E00000097
:10D120004E6F207365637572697479206D6F6465E5
:10D13000207265636569766564206265666F7265F5
:10D1400020706172746974696F6E207461626C65BD
:10D1500000000000506172746974696F6E20746120
:10D16000626C65206C656E677468206578636565C0
:10D1700064656400556E6B6E6F776E206572726FBA
:10D180007220616363657074696E67207061727488
:10D190006974696F6E207461626C65004E6F2073F4
:10D1A00065637572697479206D6F6465207265635B
:10D1B0006569766564206265666F7265206F70656B
:10D1C0006E206D756C7469004E6F207061727469A9
:10D1D00074696F6E207461626C6520726563656945
:10D1E000766564206265666F7265206F70656E207B
:10D1F0006D756C74690000004F70656E206D756C04
:10D200007469206661696C65642C20756E6B6E6F45
:10D21000776E206572726F7200000000205901F86D
:10D220004552523A2043524320696E76616C6964DC
:10D2300000000000541411FC100011FC905901F87A
:10D240002DE9F003FC4CD4F81CC0BCF1000F39D020
:10D25000256A002D36D0646A4FF00108002608EBDD
:10D2600044150CF80560102505EB4415B1466544DE
:10D27000C5F80090C5F804900CEB441585F80080C3
:10D28000182505EB4415B0466544C5F80080C5F87F
:10D290000480022505EB44150CF80560032505EB19
:10D2A00044150CF80500042000EB44104CF8001065
:10D2B000082000EB44104CF800200C2000EB441038
:10D2C0004CF80030BDE8F00370472DE9F0470F46F9
:10D2D000089DD94CD4F81CE0BEF1000F59D0216A4A
:10D2E000002956D0D4F824C0032606EB4C161EF8AD
:10D2F00006800126804514D1042000EB4C105EF816
:10D300000000B8420DD1082000EB4C105EF8000080
:10D31000904206D10C2000EB4C105EF800009842C1
:10D3200001D084F8286006EB4C100EF80060022053
:10D3300000EB4C100EF800500022102000EB4C10B7
:10D34000704402604260FDB10EEB4C1090E8E001C9
:10D35000C4E90E7866632563D0F818E04369026972
:10D36000C069C4F848E063642264E06494F85090B3
:10D37000B9F1010F08D0C4F868E0C4E91678666511
:10D38000256563662266E0660CF1010007F0A0E8FF
:10D390006162BDE8F08710B586B0CDF814D0A6481C
:10D3A00002F0BCFE002810D1A34C6068E06005A923
:10D3B00002F064FDE06802F0AFFE60610020606290
:10D3C00084F828000120A061002006B010BD2DE9DE
:10D3D000F0410025984FB86888B163263968F8682D
:10D3E00002F08EFE044604F0010004F00801084338
:10D3F0000AD1012002F09BFE761EEFD204E03968CC
:10D40000F86802F07DFE044614F0080F01D00625EE
:10D410000DE014F0010F09D014F0020F01D0042523
:10D4200005E014F0040F02D0052500E0072565B1E2
:10D4300002F07FFE044602F07EFE012C02D001289D
:10D4400002D002E0082500E009252846BDE8F08169
:10D450002DE9FF4F894685B092469B46DDF84C800A
:10D46000129E0024744F301B7D69A84200D80546E7
:10D470003968F86802F044FE10F0010F10D00AEB92
:10D480000400CDF800900123029501903968F868F6
:10D49000059A02F0B3FDFFF79AFF049068B902E025
:10D4A0000A20049009E039680BEB0402F8682B4667
:10D4B00002F0E7FD2C44B442D5D3B8F1000F01D0FF
:10D4C000C8F80040049809B0BDE8F08F2DE9F04F8E
:10D4D000834683B0884691469A460C9E0024564F58
:10D4E000351B7869854200D905463968F86802F02D
:10D4F00007FE10F0010F1CD03968F8680AEB04022F
:10D500002B4602F090FD09EB0400CDF80080029557
:10D51000002301905A463968F86802F06FFDFFF762
:10D5200056FF002802D12C44B442D9D303B0BDE841
:10D53000F08F0A2003B0BDE8F08F00203E498969D2
:10D54000002900D127E7704770B500243A4DA9693A
:10D5500021B1284602F0EAFD0021A961204670BDF4
:10D560002DE9F047074682B0884691469A460B9EC1
:10D570000A9D01204A4639462B46FFF761FE0024EA
:10D580002D48806910B9FFF706FF0446A4B9102F93
:10D590001DD2B8F1020F1AD2B9F5803F17D2BAF1F5
:10D5A000000F14D09DB10196534600954A4641465E
:10D5B0003846FFF74DFF0446012000942B464A46AB
:10D5C0003946FFF782FE02B02046BDE8F08702240C
:10D5D000F2E72DE9F84306460F469046089D994626
:10D5E000022042462B463146FFF72AFE002412480D
:10D5F000806910B9FFF7CFFE044694B9102E1DD2F2
:10D60000022F1BD2B8F5803F18D2B9F1000F15D008
:10D61000A5B100954B46424639463046FFF756FFC6
:10D620000446022000942B4642463146FFF74DFE49
:10D630002046BDE8F8830000181D11FC0224F0E725
:10D640002DE9F04F074685B08946924698460F9ED1
:10D650000E9D0123032052463946FFF7F1FD102F9E
:10D6600005D2B9F1020F02D2BAF5803F01D30224EC
:10D670002AE000244548806910B9FFF78CFE044673
:10D6800014BB04A84FF0010BCDF800B003AB019020
:10D69000524649463846FFF7DBFE040014D19DF898
:10D6A0000C00A84308EA05010843029002ABCDF83C
:10D6B00000B0524649463846FFF708FF040003D140
:10D6C00016B19DF8080030700123009403205246E3
:10D6D0003946FFF7FAFD05B02046BDE8F08F2DE989
:10D6E000F04F83B083460F461446042501230420DF
:10D6F00022465946FFF7A4FD0026DFF89080D8F8AF
:10D70000180010B9FFF747FE06469EBBBBF1100F8D
:10D7100003D2022F01D2042C01D302262AE0DFF823
:10D7200070A04FF0000944B1012C08D0022C08D0A1
:10D73000032C08D00226EEB907E00425FBE70525F7
:10D74000F9E70625F7E70725F5E7CDF804902B461E
:10D75000CDF808905A460097D8F80010D8F80C0079
:10D7600002F04CFCFFF733FE060003D1DAF80000AC
:10D770000028D8D100960123042022465946FFF7FD
:10D78000A4FD03B03046BDE8F08F0000181D11FC69
:10D79000205A01F84FF6FF7208290ED3854B90F8F6
:10D7A00000C08CEA122C33F81CC08CEA022292B220
:10D7B000083989B2401C0829F1D2C1B100780002B1
:10D7C000491E41F2210389B282EA000C1CF4004F89
:10D7D00003D05204120C5A4001E05204120C4004CF
:10D7E000000C5FEA010CA1F1010189B2ECD1D04338
:10D7F00080B270474FF6FF7208290FD36E4B90F836
:10D8000000C08CEA020C0CF0FF0C33F81CC08CEA50
:10D810001222083989B2401C0829F0D2A9B1007837
:10D820000002491E48F2084389B282EA000C1CF04B
:10D83000010F02D052085A4000E0520840085FEA47
:10D84000010CA1F1010189B2EFD1D04380B2704740
:10D850006FF0404208290FD3584B90F800C08CEA73
:10D86000925C0CF0FF0C53F82CC08CEA02220839B1
:10D8700089B2401C0829F0D2A1B100788005491E68
:10D880004F4B89B282EA000C1CF0005F02D05200BC
:10D890005A4000E0520040005FEA010CA1F1010192
:10D8A00089B2EFD1D04320F0404070476FF0404341
:10D8B00023EA0000082A0FD3404B91F800C08CEAFD
:10D8C000905C0CF0FF0C53F82CC08CEA0020083A56
:10D8D00092B2491C082AF0D2A2B109788905521ED9
:10D8E000374B92B280EA010C1CF0005F02D040007E
:10D8F000584000E0400049005FEA020CA2F101023A
:10D9000092B2EFD1C04320F040407047C04380B294
:10D9100072B1284B91F800C08CEA102C33F81CC06F
:10D920008CEA002080B2521E92B2491C002AF1D12A
:10D93000C04380B27047C04380B272B11E4B91F8B1
:10D9400000C08CEA000C0CF0FF0C33F81CC08CEA11
:10D950001020521E491C002AF1D1C04380B27047EA
:10D960000346104608290DD3164A93F800C08CEAE6
:10D97000106C52F82CC08CEA0020083989B25B1C6C
:10D980000829F2D2002914D01A781206491E0E4B2B
:10D9900089B280EA020C1CF0004F02D040005840CF
:10D9A00000E0400052005FEA010CA1F1010189B2E0
:10D9B000EFD17047E44901F8E44B01F8E44501F880
:10D9C000C7B93060E44D01F8B71DC1044DF804ED4E
:10D9D00083B0002002900190002302AA40F60401C7
:10D9E000184602F0ABFE002804D19DF8080001287B
:10D9F00003D0162003B05DF804FB002301AA40F613
:10DA00000101184602F09AFE0028F3D19DF8041097
:10DA100089B9FB490A894A8110310A894A81103142
:10DA20000A894A8110310A894A8110310A894A815A
:10DA300058390A884A800121F24A117003B05DF812
:10DA400004FBF8B50D46012408B10E20F8BD052DE4
:10DA500001D30F20F8BDEB48007818B9FFF7B6FFE7
:10DA60000028F7D10027E84E3B460097B088718820
:10DA7000C2B2384602F0ABFE0028EBD14FF49670EC
:10DA8000FEF74FFB052D1ED2DFE805F00A03050760
:10DA90000900042404E0052402E0062400E0072431
:10DAA0000097F08823463188C2B2002002F08FFE32
:10DAB0000028CFD10097B088FF237188C2B2002020
:10DAC00002F085FEF8BD0097FF23B0887188C2B2CE
:10DAD000002002F07CFE1620F8BD4DF8044D531EC8
:10DAE00003F0FF0C98B151F82320824216D0002297
:10DAF000002B13DD51F8224084420BD2541C51F804
:10DB00002440844206D3501C00F0FF0C06E04FF086
:10DB1000000C03E0521CD2B29A42EBDB5DF8044BDE
:10DB2000604670472DE9F04F0E4683B090461D4683
:10DB30000C9F18B103B00E20BDE8F08FB348A0F1E0
:10DB40007C046168491E50F82100404503D203B0AF
:10DB50001020BDE8F08FA168AD48491E50F82100A3
:10DB6000A84203D203B01120BDE8F08F052F03D3E4
:10DB7000122003B0BDE8F08F207818B9FFF726FF18
:10DB80000028F6D16068A149C2B24046FFF7A5FF60
:10DB90008146A0689E49C2B22846FFF79EFF824692
:10DBA000062E19D2DFE806F003050718090B944C7E
:10DBB00006E0984C04E0984C02E0984C00E0984C49
:10DBC000002302AA1846618902F0B8FD05463DB15E
:10DBD00003B02846BDE8F08F03B00F20BDE8F08FFA
:10DBE000A1899DF80800084002904FF0000888B114
:10DBF000CAB2CDF8008000236189184602F0E7FD23
:10DC000005461DB103B02846BDE8F08F4FF496706D
:10DC1000FEF787FADFF80CB276B9CDF80080002362
:10DC2000BBF80200BBF80010C2B2184602F0CFFDEC
:10DC300005469620FEF775FA1DB1284603B0BDE8EB
:10DC4000F08FCDF800804B4660882188C2B200205A
:10DC500002F0BDFD0028F1D156B9CDF80080FF23B8
:10DC6000BBF80200BBF80010C2B2002002F0AFFD0A
:10DC70000028E3D1CDF80080E0885346A188C2B2E5
:10DC8000002002F0A4FD0028D8D1052F25D2DFE81E
:10DC900007F0030507090B00012306E0042304E055
:10DCA000052302E0062300E00723CDF80080E08989
:10DCB0002189C2B2002002F08AFD9DF808100029D7
:10DCC000BCD0CDF80080A089FF236189C2B20020BA
:10DCD00002F07DFD03B0BDE8F08F03B01220BDE877
:10DCE000F08F38B50C46154608B10E2038BD4548B2
:10DCF000007818B9FFF76AFE0028F7D1062C19D270
:10DD0000DFE804F003050718090B3D4806E0414829
:10DD100004E0414802E0414800E04148012D0BD0B9
:10DD20000023002100918189CAB24189002002F0BC
:10DD30004EFD38BD0F2038BDFF23F2E7F8B50F4682
:10DD4000154608B10E20F8BD3748A0F1DC06F16891
:10DD5000491E50F82100A84201D21020F8BD032F1F
:10DD600001D90F20F8BD307818B9FFF72FFE002831
:10DD7000F8D10024009403223B4640F6740120466B
:10DD800002F025FD0028EDD1F0682749C2B22846EF
:10DD9000FFF7A3FE034600940722002040F675011A
:10DDA00002F015FDF8BD38B50C46002300933CB1D8
:10DDB000C0B200216A4602F040FE18B10E2038BD04
:10DDC000732038BD0F48007818B9FFF7FFFD002811
:10DDD000F7D100980023224640F6080102F0AEFC7D
:10DDE00038BD30B50D4683B000240294F5B1C0B201
:10DDF000002102AA02F021FED8B103B00E2030BDEE
:10DE0000505A01F8245A01F8385A01F8A05A01F87A
:10DE1000E05A01F8605A01F8705A01F8805A01F886
:10DE2000905A01F8405A01F8005B01F8732003B0E2
:10DE300030BDD148007818B9FFF7C8FD0028F6D1E9
:10DE40000298009402222B4640F60C0102F01FFDBE
:10DE500003B030BD30B50D4683B00024029445B107
:10DE6000C0B2002102AA02F0E8FD28B103B00E20E2
:10DE700030BD732003B030BDBF48007818B9FFF73C
:10DE8000A5FD0028F6D10298009402222B4640F608
:10DE90000A0102F0FCFC03B030BD30B50D4683B082
:10DEA0000024029445B1C0B2002102AA02F0C5FDCF
:10DEB00028B103B00E2030BD732003B030BDAE4892
:10DEC000007818B9FFF782FD0028F6D10298009477
:10DED00002222B4640F60E0102F0D9FC03B030BD01
:10DEE00030B50D4683B00024029445B1C0B2002184
:10DEF00002AA02F0A2FD28B103B00E2030BD7320AB
:10DF000003B030BD9C48007818B9FFF75FFD0028CA
:10DF1000F6D10298009408222B4640F6080102F040
:10DF2000B6FC03B030BDF0B50D4683B000260296B6
:10DF30000727C0B2002102AA02F07FFD10B103B092
:10DF40000E20F0BD8D48A0F1FC042169491E50F857
:10DF50002100A84202D20F2003B0F0BD207818B9EA
:10DF6000FFF734FD0028F7D120698449C2B2284662
:10DF7000FFF7B3FD0346029800963A4640F671015A
:10DF800002F025FC04469620FEF7CBF803B02046AD
:10DF9000F0BD38B514460022009201228A40D5B265
:10DFA000082901D3162038BDC0B200216A4602F00C
:10DFB00044FD08B10E2038BD6F48007818B9FFF74E
:10DFC00005FD0028F7D13CB1009800232A4640F611
:10DFD000150102F0DAFB38BD009800232A4640F60E
:10DFE000160102F0D2FB38BD38B5002200920122A2
:10DFF0008A40D4B2082901D3162038BDC0B200210E
:10E000006A4602F01AFD08B10E2038BD5A48007861
:10E0100018B9FFF7DBFC0028F7D10098002322464F
:10E0200040F6140102F0B1FB38BD2DE9F0439146F2
:10E0300083B00027029701228A4002F0FF080024E3
:10E0400000250026082903D303B01620BDE8F0837D
:10E05000C0B2002102AA02F0F0FC18B10E2003B0F9
:10E06000BDE8F0834448007818B9FFF7AFFC0028FA
:10E07000F5D1B9F1050F2FD2DFE809F00305070A42
:10E080000D00FF260AE0FF2508E0FF24FF2505E03C
:10E09000FF24FF2602E0FF24FF25FF2602980097B9
:10E0A0002346424640F6110102F091FB04460298D5
:10E0B00000972B46424640F6120102F088FB0443CB
:10E0C000029800973346424640F6130102F07FFB68
:10E0D000204303B0BDE8F08303B01620BDE8F08311
:10E0E00070B5144682B01E460022019201238B4077
:10E0F000DDB20092082902D302B0162070BDC0B272
:10E10000002101AA02F099FC10B10E2002B070BDEE
:10E110001948007818B9FFF759FC0028F6D134B136
:10E12000012C0CD0022C12D002B0162070BD019828
:10E1300000236A464FF4016102F000FB0EE00198F3
:10E1400000236A4640F6180102F0F8FA06E001984A
:10E1500000236A4640F6190102F0F0FA18B99DF85A
:10E160000010294000919DF8001009B1012100E044
:10E170000021317002B070BD245A01F8205B01F813
:10E1800070B50546FD48416801290CD0C16B0129D5
:10E1900009D00021C1EBC10200EBC204E2691AB14F
:10E1A000491C0229F6DB70BD204600F045FB002823
:10E1B000F9D0F34800F03AFD95F829000028F2D094
:10E1C000204600F039FB0028F3D170BD70B505463C
:10E1D0000C4600224420114602F0C3FE012C0ED052
:10E1E000032C21D1E74C2178012902D12846FFF7E1
:10E1F000C7FFE068002817D0BDE870400047002145
:10E20000E8690C2803D0B0F5F07F04D101E040218B
:10E2100001E04FF40071DC4A0B0A50680171437150
:10E2200090690171090A417170BD10B50446002260
:10E230004520114602F095FE0021A161D1494968AF
:10E24000002903D02046BDE81040084710BD10B596
:10E25000044600214620E26902F083FEA269002103
:10E26000472002F07EFEC74920468968BDE810407D
:10E27000084710B5044600214820224602F071FEEE
:10E28000BF48C46010BD08B1012801D1BD49487024
:10E29000704710B5044600225320114602F061FE7B
:10E2A000A068FFF76DFFB74920468968BDE81040B8
:10E2B00008472DE9F05F83460F4615460A9C1E4627
:10E2C000DFF8C0A28AF8004000224920114602F07F
:10E2D00048FE0AF1B40917B1D9F80800C7614FF038
:10E2E0000008AA4A9AF8010002F11803A2F17C0C76
:10E2F000A2F1280710B1012809D01FE0A4487860D6
:10E30000C01DB861103850600938586016E0C2F876
:10E310000080A0497960C91DB961A1F11000506069
:10E3200009385860BCF80A00A0F51041063905D13B
:10E3300049F20800ACF80A008CF81080C9F800C057
:10E34000DA60012001F03EFA8D4800F045FCCAF881
:10E3500008B00DB1CAF804500EB1CAF80C60D9F873
:10E360000C0000F0D9FC8C49C1F808907A689278CA
:10E370000A74A1F580424A61C1F81880C1F804808E
:10E38000012681F82060854A4A6281F83480002C99
:10E3900048D00021794B4FF4805A814A03F1700C28
:10E3A000C1EBC10503EBC505C5F80890D7F818B057
:10E3B0009BF802B085F810B00CEB013BC5F814B027
:10E3C000C5F818A085F820806A62C5F81C8085F819
:10E3D0003480491CC9B20229E2D310B3684800F066
:10E3E00088FB89F828600022D9F80C00012101F08F
:10E3F000BCF8D9F80C000122114601F0B6F8D9F8A2
:10E400000C000022022101F0B0F8D9F80C00012222
:10E41000022101F0AAF85A48012100F09CF9012CD0
:10E4200013D015E05F4DC5F80890B9698978297453
:10E43000C5F81480C5F8188085F820805A496962AB
:10E44000C5F81C8085F83480C7E7A868FFF798FEF8
:10E450004B48BDE8F09F10B500224A20114602F05B
:10E4600080FDBDE81040464800F0E6BB70B50546AB
:10E47000494C00214B202A4602F073FD60680128B8
:10E4800005D13F4800F0D2FB60680128F9D0A069AF
:10E49000411CA16161690D547E2D02D1A069012842
:10E4A00003D8A069B0F5804F04D32046BDE8704082
:10E4B00000F0C2B970BD2DE9F04106460D46364C5C
:10E4C00000214C202A4602F04CFD6068012805D14D
:10E4D0002B4800F0ABFB60680128F9D00027F6B9A3
:10E4E000EDB1B5F5804F1AD9002155202A4602F02A
:10E4F00038FD2E484FF480433246194601F020FE85
:10E50000012084F834008603A661204600F094F9C7
:10E510006661A5F58040A06184F8347018E09EB96A
:10E5200095B1B5F5804F0FD8002155202A4602F04D
:10E5300018FD1E482B4632464FF4804101F000FE84
:10E5400084F83470A56103E06661A56184F83470D5
:10E550000021A269032002F004FD204600F06CF9BE
:10E560006068012805D1064800F060FB606801285A
:10E57000F9D00E486061BDE8F0810000845E11FCB6
:10E58000F45B01F8405B01F8A45B01F8CC5B01F897
:10E59000745B01F8945B01F8145E11FC2BE200F847
:10E5A00093E200F84C5E11FC4FE200F8141E11FCDF
:10E5B00010B53B48406801280AD03A48806B0128D2
:10E5C00006D000224D20114602F0CBFC002010BDE9
:10E5D000012200214D2002F0C4FC012010BD2DE9D4
:10E5E000F04106460F46304C00214E203A4602F0DC
:10E5F000B8FC25466868012805D12A4800F016FBBA
:10E6000068680128F9D016B90FB1666100E066614B
:10E61000A761002105203A4602F0A3FC204600F045
:10E620000BF90020BDE8F08110B5044600214F2011
:10E63000E26902F096FC0020E06110BD70B505466D
:10E640000C4600225020114602F08BFC174805B101
:10E650000581002C00D0448170BD70B504460D4684
:10E66000164600225120114602F07BFC002E07D1F5
:10E670000E480CB101892180002D01D040892880ED
:10E6800070BD10B5044600225420114602F069FC0A
:10E690000020E061A068BDE8104071E501F0A9B874
:10E6A000145E11FCF45B01F84C5E11FC505B01F848
:10E6B0004068704740687047C06AC0687047C06A69
:10E6C000C068C06830B1426892788A4203D000685E
:10E6D0000028F8D100207047806840B103898B4240
:10E6E00002D1837A934203D000680028F6D100203B
:10E6F00070470269002A00D01047704770B5054680
:10E7000082B0E868436893F802C08C451FD1D9787D
:10E7100091421CD1C468BCB10026616891F802C066
:10E720004FEADC1248790B79019643EA0020009009
:10E73000C8780CF00F0100F00303A868C06800F06F
:10E74000B6FC2468002CE8D102B0002070BD02B0F5
:10E750004FF0FF3070BD2DE9F04104460E46002514
:10E7600094F8290028B126B1B04202D0681EBDE855
:10E77000F081B0424DD0D6B131462046FFF79AFF26
:10E78000074667B1F8680022406881783846FFF78D
:10E79000B5FF002807DA4FF0FF30BDE8F0814FF0F9
:10E7A000FF30BDE8F08184F82960E7621CE00020BA
:10E7B00084F82900E0620126E0680022314600F07A
:10E7C00086FEE0680022314600F0CCFCE0680122C1
:10E7D000314600F07CFEE0680122314600F0C2FCC8
:10E7E000701CC6B2032EE7D303212046FFF781FF3A
:10E7F000E06800F062FF28B1012805D0022804D1AA
:10E80000050202E0402500E00825284600F05DFFF3
:10E810000FE0E06800F051FF28B1012805D0022880
:10E8200004D1050202E0402500E00825284600F05A
:10E830004CFF0020BDE8F081F949016000214160F2
:10E84000C161816841B1CA68C26091F8291039B9C3
:10E85000017C11F00F0F03D003214160081F7047A6
:10E8600000F0D1BD10B51C464FF0FF3C09B134306B
:10E8700000E06C304168012904D042618461FFF7F7
:10E88000DBFF8446BCF1000F01DA604610BD204674
:10E8900010BD0B46012100F13002E3E72DE9F04104
:10E8A00007460E46B01C00256C1E4278012A04D093
:10E8B000022A05D0032A19D10DE03D682C7815E015
:10E8C00001783846FFF7F4FE80B14568E878A9780A
:10E8D00041EA00240AE002787079317941EA0021A6
:10E8E0003846FFF7F9FE08B145682C789DB1F079FC
:10E8F000B17941EA0020A04200DA0446C94840212B
:10E9000023462A4601F01CFC23463846BDE8F04168
:10E910000121C44AA6E72046BDE8F08110B54A7837
:10E920000A2A39D2DFE802F0053D383D3811203D92
:10E930002330CA79897941EA0221022931D30021A1
:10E9400001860221BDE81040A3E7CA78897841EA30
:10E95000022190F8292022BBC9B280F82810C06893
:10E9600000F053FB002010BDBDE8104096E7CA79C7
:10E97000897951EA022114D090F8291080F83010DA
:10E980000121BDE8104084E7CA788978BDE81040CD
:10E9900041EA0221C9B2DEE6426912B1BDE8104087
:10E9A00010474FF0FF3010BD70B505460C4660793A
:10E9B000217941EA00212846FFF77EFE617803298C
:10E9C0003BD003DC69B1012904D136E00A2916D015
:10E9D0000B2922D080B3026972B32146BDE8704092
:10E9E000104748B3E079A17941EA0020022824D3F6
:10E9F000002028862846BDE87040022149E7D8B1AA
:10EA0000E179A27952EA012117D0007D85F8300022
:10EA10002846BDE8704001213BE7E86A60B1E17833
:10EA2000A278237942EA0121CAB26179BDE8704037
:10EA300043EA0121C9B261E6FFE74FF0FF3070BD44
:10EA400010B54B689B7803F00F0CDB090A612AB103
:10EA5000C0681A46614600F0E4FA04E0C0681A464D
:10EA6000614600F0F6FA002010BD70B505460C4670
:10EA70006079217941EA00212846FFF720FE68B13C
:10EA8000617871B101291BD0032924D00C2927D02A
:10EA9000C2682AB32146BDE8704010474FF0FF30EE
:10EAA00070BDE179A27942EA0121022918D30069F7
:10EAB00000F0010028862846BDE870400221E8E603
:10EAC000E178A27852EA01210AD1014628460022C3
:10EAD000BDE87040B4E7E178A27852EA012102D0A3
:10EAE0004FF0FF3070BD01462846BDE8704001225E
:10EAF000A6E770B50446E06801F0C2FF0546A069CC
:10EB0000A8420AD00020E06115B1E06801F0CAFF18
:10EB1000A56100212046FFF7ECFDE06800F0CDFD87
:10EB200068B101280DD002280DD00020E169814292
:10EB30000CD0E06120460121BDE87040D9E50C20F1
:10EB4000F4E70120F2E74FF4F070EFE770BD10B585
:10EB500004462046FFF7CDFF00212046FFF7FBFDCE
:10EB6000002184F82810E06800F04FFA03202067A5
:10EB7000A06310BD10B504464FF0FF300A7812F0C4
:10EB80001F0204D0012A06D0022A0BD107E020463A
:10EB9000FFF7C4FE06E02046FFF706FF02E020462E
:10EBA000FFF763FF002809DD04F130022046BDE8CD
:10EBB00010404FF004034FF0000153E605D120460A
:10EBC000BDE810404FF0000163E6E0680022BDE8B8
:10EBD0001040114600F025BA10B504460020A0618F
:10EBE000E06184F82800E06284F82900E463802171
:10EBF00084F84410A0650321A163646784F87C0055
:10EC0000C4F8900021672146074AE06800F092F8B6
:10EC1000E0680122BDE81040002100F0EDBC0000DA
:10EC200051555242F47E11FCCC5C01F8002802D010
:10EC3000C06800F0A0B9704770B505460024124EB8
:10EC400003E02846FFF7F2FF641CA86B012802D1FD
:10EC500030688442F5D300212846FFF77CFDE86840
:10EC600000F0A8FC0020A861E86185F8280070BDCC
:10EC700010B504462046FFF7D9FF94F82900002874
:10EC800000D0012010BD0000C85C01F8F748807872
:10EC900070472DE9F0414FF4C071F54805F010FAC6
:10ECA000F4484FF4435105F00BFA4FF0000CF04DCF
:10ECB000012205F5C07600210CEB8C1005EBCC1E73
:10ECC00006EB801401EB811004EB40130EEB811076
:10ECD0008360002003EB40173A60401C4028F9DBBA
:10ECE000491C0229EEDB0CF1010CBCF1030FE2DB45
:10ECF0004FF4800028602864286840F400402860B1
:10ED00004FF4C071DA4801F056FFBDE8F0414FF40E
:10ED10004351D84801F04FBF10B5D44801780129BC
:10ED200001D100210170012200217C2002F019F99B
:10ED3000012010BD2DE9F04104460025CB4882603A
:10ED400004EB4400CC4A02EB8000816002F0B8F88A
:10ED500038B12046FFF7E0FF30B9204601F006FF4A
:10ED600002E0204601F002FFC44E56F82400D0F81D
:10ED7000A81121F0030141F00201C0F8A8112046BA
:10ED8000FFF787FF56F82410B948C1F8580100274B
:10ED900056F82400C0F8487102F084F838B156F8EB
:10EDA0002400D0F8A81141F01001C0F8A81156F8BD
:10EDB0002400D0F8A81141F00801C0F8A81156F8B5
:10EDC0002400C0F8AC71082056F82410C1F898004F
:10EDD000FFF75CFF012807D156F82400D0F8401156
:10EDE00041F00101C0F840112846BDE8F08170B53E
:10EDF0000446A24E012056F82410C1F8AC0156F882
:10EE00002410D1F8AC0100F001000028F9D1984D90
:10EE100056F82400D0F8401141F40051C0F84011D8
:10EE2000082105F1280001F0C5FE9548082305F1E9
:10EE30002802194601F084F956F82400D0F8400160
:10EE400000F400500028E3D056F82400D0F8401118
:10EE500021F40051C0F8401104EB4400864901EB55
:10EE600080008068814989684A68BDE870408449AB
:10EE700010472DE9F05F814951F82000D0F8BCB16E
:10EE8000C0F8BCB14FF000084FF0010A002608EBB3
:10EE900006100AFA00F01BEA000F36D0744800EBA7
:10EEA000C81000EB8610402101F084FE714808EB89
:10EEB000881100EB811006EB861100EB4114A1468E
:10EEC000002500272021204601F074FE606807EB32
:10EED00010470DB96068C5B22068012801D02468C8
:10EEE00000E00024002CEDD1D9F81C40A069C11B22
:10EEF000E161606901F05EFEA5B1802D1AD00320AA
:10EF00006060616A09B120468847701CC6B2012E54
:10EF1000BDD908F1010000F0FF08B8F1030FB5D327
:10EF2000BDE8F09F02206060616A0029EDD02046B4
:10EF30008847EAE7C4F804A0E7E74F4900EB400040
:10EF400001EB800080684949896889680847F4E7CF
:10EF500010B500EB4000484901EB800084680022B6
:10EF60007D20114601F0FDFF40492046896809686F
:10EF7000BDE81040084770B50646404850F82610D6
:10EF8000D1F84441D1F8AC51C1F8444114F0400FDC
:10EF900007D000229620114601F0E3FF3046FFF72C
:10EFA000D7FF14F4807F07D000229720114601F08C
:10EFB000D8FF3046FFF7CBFF14F0040F07D0002234
:10EFC0009820114601F0CDFF3046FFF7B6FF14F050
:10EFD000100F04D000229920114601F0C2FF14F056
:10EFE000020F04D000229A20114601F0BAFF14F05B
:10EFF000010F02D03046FFF73CFF15F0010F03D0A0
:10F000003046BDE87040F2E670BD4FF0807242EAD3
:10F0100041621A4B53F82000C0F854211348417044
:10F0200070474FF0000C19B12AB14FF4803203E061
:10F030004FF0011200E00122104B53F820004FF472
:10F04000E07303EB8101435893431A4342506046F7
:10F0500070474DF8044D4FF0000C002391B1A2B160
:10F060004FF482024FF4800311E00000D85C01F8F5
:10F07000008011FC808111FC70B611FCB45D01F8B8
:10F08000F05C01F84FF0011201E041224023FB4CFB
:10F0900054F820004FF4E07404EB81014458944389
:10F0A0001A402243425060465DF8044B70472DE9F8
:10F0B000F04707460C461546DDF820909A46DDF8E5
:10F0C0002480002644B1032C03D2022D01D2022F4A
:10F0D00005D30320BDE8F0870020BDE8F087012DAF
:10F0E00005D03846FFF718FE78B100200EE038460C
:10F0F000FFF712FE08B1002001E04FF4800000EBA2
:10F100008A4000F50003DE4906E0402000EB8A005B
:10F1100000F180034FF6FF71DA484FEA094C00EB2B
:10F12000C41000EB8512C2F800C0B8F1010F14D072
:10F13000106840F000501060D04850F827204FF47D
:10F14000E07000EB840C52F80C008843194008432F
:10F1500042F80C003046BDE8F087106820F00050FF
:10F160001060E9E74DF8044D0023032903D2022A79
:10F1700001D2022801D3032319E0C24C4FF0000C46
:10F1800004EBC11404EB8214C4F800C079B1012A65
:10F1900011D08022DFF8E4C25CF820004FF4E07C5C
:10F1A0000CEB810150F801C02CEA020242501846D3
:10F1B0005DF8044B70474FF40002EBE7B248C068BB
:10F1C00070472DE9F05FDDF828B00B9E1F464FF029
:10F1D000FF35DFF8B4E24FF000099EF803C0BCF140
:10F1E000000F02D000258EF8039000EB8010DFF8AE
:10F1F0009CC20CEB801801EB811008EB401C6D1CCD
:10F20000B3F5804F01D2184601E04FF480400CEB7B
:10F210004514C4F80090C4F80890C4F80C90C4F8E1
:10F220001090C4F81490C4F81890C4F81C904FF0D3
:10F23000800A0AEB004AC4F804A0002D05DDA5F100
:10F24000010A0CEB4A1ACAF80040A260D4F808A0E0
:10F250006FF30B0AC4F80CA0D4F80CA00AF5805A7E
:10F26000C4F80CA0D4F80CA00AF5805AC4F810A079
:10F27000D4F810A00AF5805AC4F814A0D4F814A049
:10F280000AF5805AC4F818A01B1A02440BB13F2D8E
:10F29000B5DB002E4FF0010A01D08EF803A02ED16D
:10F2A000BBF1000F2BD0012929D1FFF787FF0146C1
:10F2B000384605F00EE911BB0FB3681C1FD008F5E6
:10F2C000026101EB4014C4F80090C4F80890C4F83F
:10F2D0000C90C4F81090C4F81490C4F81890C4F8B6
:10F2E0001C9080226260002803DD401E01EB40106C
:10F2F00004606748A060E06020616061A061002E4A
:10F3000005D1C4F800A0606840F400406060BDE82A
:10F31000F09F2DE9FF4F0D4683B006469246DDF87B
:10F3200040B0DDF848901199069A564800EBC51098
:10F3300000EB8A18012305EB0A1003FA00F44F4F83
:10F3400055B957F82600D0F8AC0100F0010018B10B
:10F3500007B00520BDE8F08FBBF5801F03D907B0CB
:10F360000320BDE8F08F57F82600D0F8B801204000
:10F3700018B107B00720BDE8F08FCDF804905B46C8
:10F38000009151462846FFF71CFF404805EB8511C8
:10F3900000EB81100AEB8A1100EB411AC8F808A0B3
:10F3A0000020C8F80C005946069801F004FC00251E
:10F3B0000AEB4510202101F0FEFB6D1C412DF7D317
:10F3C0004021404601F0F7FBBFF35F8FB9F1000F1A
:10F3D00015D157F82600C0F8B041002057F8261084
:10F3E000D1F8B821D1F8BC3122402340401C052877
:10F3F00002DBC1F8B041002052EA0301EED007B0B1
:10F400000020BDE8F08F2DE9F04383B00446D4F826
:10F410000CC0207C00F00F05C7096369A06994F84F
:10F42000202094F83460DFF860800EB1C8F8140032
:10F43000032D03D303B00320BDE8F0830F494FF43D
:10F44000E07909EB850951F82C1051F80990012F4A
:10F4500020D0802119EA010F1FD0029601923A466E
:10F46000009029466046FFF754FF0146B9B10320DA
:10F470006060084603B0BDE8F0830000B45D01F8A9
:10F480000000FFFF008011FCD85C01F8808111FCB6
:10F49000E85C01F84FF40001DCE70720EAE701200F
:10F4A00060600022E2613EB9D8F8140020B1A3697F
:10F4B0001844A061C8F8142005EB8510CE4A02EB71
:10F4C000801007EB871200EB4210C461D1E72DE9F1
:10F4D000F047064688469246012108EB0A1001FAD9
:10F4E00000F4C64F57F82600D0F8B80100EA040926
:10F4F000B9F1000F36D0C24800EBC81000EB8A10FB
:10F50000402101F057FB0025BB4908EB881001EBB7
:10F5100080100AEB8A1100EB411808EB45102021FE
:10F5200001F048FB6D1C412DF7D3D8F81C30B9F120
:10F53000000F10D057F82600C0F8B44157F8261035
:10F54000D1F8B40100EA0402002AF9D1D1F8B801D7
:10F5500020400028EED12BB103205860596A09B130
:10F56000184688470020BDE8F08701EB0211012210
:10F5700002FA01F1DFF884C25CF82020D2F8B82149
:10F580000A407AB15CF82020C2F8B4115CF820205F
:10F59000D2F8B4310B40002BFAD1D2F8B8210A408E
:10F5A000002AEFD15CF82000D0F8BC11C0F8BC11E3
:10F5B0000020704770B505460026002422463146DB
:10F5C0002846FFF784FF601CC4B2022CF6D3701CDF
:10F5D000C6B2032EF1D30026002431462246284627
:10F5E000FFF7C0FD601CC4B2022CF6D3701CC6B27B
:10F5F000032EF1D3002070BD70B40025022901D282
:10F60000022802D3032070BC70477E4C635C13B1A8
:10F6100070BC062070474FF040430AB14FF04143A1
:10F62000764A6FF07F4C61B152F82060C6F888C00E
:10F6300052F82000C0F88C3001206054284670BC7D
:10F64000704752F82060C6F880C052F82000C0F819
:10F650008430F1E7022901D2022801D30320704748
:10F66000664B002239B153F82000C0F88C20654B5E
:10F670005A541046704753F82000C0F88420F6E72B
:10F680000022022901D2022801D3032070475B4BDC
:10F6900011B1012907D00CE053F82000D0F8840004
:10F6A00020F07F4205E053F82000D0F88C0020F0D5
:10F6B0007F426FF07F40801A7047504951F8200018
:10F6C000D0F88401C0F3816070474F49C86070472B
:10F6D0004A4951F82000D0F8840100F0800000B1C0
:10F6E0000120C0B27047454951F82000D0F884018C
:10F6F000C0F381207047414951F82000D0F84011F3
:10F7000041F00101C0F8401170472DE9F041074672
:10F71000002500244FF08046304600EB0140DFF822
:10F72000DC8058F82710C1F8700108E058F827006D
:10F73000D0F8705105F08046012001F0F7FBB6F1DA
:10F74000804F04D12046641CB0F5FA7FEED3C5F398
:10F750000720BDE8F0812DE9F0470746894690462D
:10F760001E4600244FF08045FF2E09D049463846FA
:10F77000FFF7CBFFC0B2B04306EA080141EA000838
:10F7800008EB094000F1C0401C4E56F82710C1F8A4
:10F79000700108E056F82700D0F8700100F08045AD
:10F7A000012001F0C3FBB5F1804F04D12146641C58
:10F7B000B1F5FA7FEED3BDE8F08710B501F0A9FAF4
:10F7C000C0B210BD1049887070470C4B53F8200030
:10F7D000402303EB8101435842507047002A07D071
:10F7E000064B53F82000402303EB81014058106082
:10F7F0007047054908707047808111FCB45D01F8BD
:10F80000008011FCDC5C01F8D85C01F8F0B5ADF5C6
:10F81000017D05460024FB4F012300216A467868DC
:10F8200000F0DAFD18B10DF5017D0020F0BD9DF866
:10F83000C2019DF8C7219DF8C6119DF8C93141EA62
:10F8400002219DF8C821120442EA03621143A84232
:10F8500003D10DF5017D0846F0BD9DF8D2019DF85C
:10F86000D7219DF8D6119DF8D93141EA02219DF8A2
:10F87000D821120442EA03621143A84203D10DF5D4
:10F88000017D0846F0BD9DF8E2019DF8E7219DF855
:10F89000E6119DF8E93141EA02219DF8E8211204C0
:10F8A00042EA03621143A84203D108460DF5017DE7
:10F8B000F0BD9DF8F2119DF8F7219DF8F6019DF835
:10F8C000F93140EA02209DF8F821120442EA03626D
:10F8D0001043A942EAD00646052903D00DF5017D63
:10F8E0000020F0BD7868A11901236A4600F074FD7C
:10F8F00018B10DF5017D0020F0BD9DF8C2019DF805
:10F90000C7219DF8C6119DF8C93141EA02219DF831
:10F91000C821120442EA0362114332191144A84279
:10F9200003D10DF5017D0846F0BD9DF8D2019DF88B
:10F93000D7219DF8D6119DF8D93141EA02219DF8D1
:10F94000D821120442EA036241EA02040528C9D020
:10F950000DF5017D0020F0BD7047ABA07047F0B4FD
:10F9600000234FF4006140228C4649105200C82900
:10F97000FBDC02FB0CFC5C1CC154C1F30723621CC2
:10F9800003550023002918DD0CF0FF044FEA1C6723
:10F99000CCF30725CCF3074602F1010C84540CF19B
:10F9A000010200F80C5002F1010C86540CF1010226
:10F9B00000F80C705B1C8B42EEDB1046F0BC70470D
:10F9C000002070470020704710B50446FCF736FC55
:10F9D0002CB1022C03D0032C01D0042C01D0072021
:10F9E00010BD002010BD70B50025864C606808B1C0
:10F9F000002070BDFCF722FC0021284600F0BDFB72
:10FA0000606048B1FCF71AFC606800F062FE1628DE
:10FA100004D030B1072070BD072070BD0020A06069
:10FA200070BDFCF70BFC0121284600F0A6FBA0608E
:10FA3000FCF704FC0221284600F09FFBE060FCF785
:10FA4000FDFB0421284600F098FB2061FCF7F6FB43
:10FA50000521284600F091FB6061FCF7EFFB0621D1
:10FA6000284600F08AFBA061FCF7E8FB0721284646
:10FA700000F083FBE061002070BD70B50D461446B8
:10FA8000FFF7B1FF072801D0002002E0072070BD7A
:10FA9000401CA042FCD3A81E272872D2DFE800F049
:10FAA00014181C434C979750485460585C223D26CC
:10FAB0006468979797979797979797979797976C63
:10FAC0007278977E848A90004E49072008707CE007
:10FAD0004C490720087078E04A4801210170002154
:10FAE000016272E04749072008706EE0454C002033
:10FAF00020700B20FFF78AFE08B1206265E00C2021
:10FB0000FFF784FE08B120625FE00E20FFF77EFE63
:10FB100008B1206259E0072070BD3A480121017008
:10FB20000021016251E037490020087008624CE072
:10FB300034490720087048E032490720087044E043
:10FB400030490720087040E02E49072008703CE04B
:10FB50002C490720087038E02A490720087034E053
:10FB600028490720087030E02649072008702CE05B
:10FB700024490720087028E0224800210170016212
:10FB800023E024E01F4801210170002101621CE0F4
:10FB90001C48022101700021016216E0194803216E
:10FBA00001700021016210E016480421017000215B
:10FBB00001620AE01348052101700021016204E09E
:10FBC00010480621017000210162002070BD07204D
:10FBD00070BD00207047002070472DE9F0470546B2
:10FBE0000F4690464FF00009064E3078072805D2A0
:10FBF000DFE800F01A0E1012141618000020BDE8FD
:10FC0000F0870000F85C01F8654D4D4300000000EE
:10FC1000B4680AE0F46808E0346906E0746904E056
:10FC2000B46902E0F46900E0746814B1012802D0FC
:10FC30001DE00720E3E7D7B995F8BE01802814D06E
:10FC400095F8CE01802810D095F8DE0180280CD0E0
:10FC500095F8EE01802808D0002040B1B06830B19E
:10FC600000F037FD18B10720C9E70120F5E77078EB
:10FC7000012801D009EB5727306A3E18FCF7DEFA5D
:10FC8000C8F30800002801D0012000E000202A4627
:10FC900000EB58233146204600F0F3FB08B1072063
:10FCA000ADE70020ABE70720704770B5064690B07F
:10FCB000714D2878072805D2DFE800F01307090BFB
:10FCC0000D0F110010B0002070BDAC680AE0EC68A8
:10FCD00008E02C6906E06C6904E0AC6902E0EC69BC
:10FCE00000E06C684CB1FCF7A9FA6946204600F0C8
:10FCF000CAFA28B110B0072070BD10B0072070BD3F
:10FD0000287870B14FF40071304604F0B7F9012340
:10FD100000213246204600F0B4FB48B110B0072065
:10FD200070BD01980021421E204600F061FC0AE0EF
:10FD3000019801233246411E204600F0A2FB10B17B
:10FD400010B0072070BD10B110B0072070BD10B00A
:10FD5000002070BD10B548480178072905D2DFE8BA
:10FD600001F01206080A0C0E1000072010BD84686E
:10FD70000AE0C46808E0046906E0446904E08469B4
:10FD800002E0C46900E044683CB1FCF757FA204641
:10FD900000F09FFC18B1072010BD072010BD002007
:10FDA00010BD2DE9F04106460D4617463248017850
:10FDB000072905D2DFE801F01307090B0D0F110029
:10FDC0000720BDE8F08184680AE0C46808E004699F
:10FDD00006E0446904E0846902E0C46900E0446824
:10FDE0005CB1FCF72BFAABB23A463146204600F044
:10FDF00048FB28B10720BDE8F0810720BDE8F0816D
:10FE00000020BDE8F0810720704770B590B006462D
:10FE10000D4619480178072905D2DFE801F01307DC
:10FE2000090B0D0F110010B0002070BD84680AE0AE
:10FE3000C46808E0046906E0446904E0846902E0FB
:10FE4000C46900E044684CB1FCF7F8F96946204603
:10FE500000F019FA28B110B0072070BD10B00720CB
:10FE600070BD402269463046FCF7ECF92868403006
:10FE7000286010B0002070BDF85C01F87047704732
:10FE800000F5704000684FEA107CC1F800C0C0F374
:10FE90000B41116080B21860704700F570404168F6
:10FEA00041F002014160704700F57040416821F067
:10FEB00002014160704700F570404068C0F34000A7
:10FEC000704700F57040416841F0010141607047A2
:10FED00000F57040416821F001014160704700F574
:10FEE0007040406800F00100704700F57040816884
:10FEF00041F001018160704700F57040816821F098
:10FF000001018160704700F57040806800F00100D9
:10FF1000704700F57040C068704700EB820000F544
:10FF20007040C0F8001170470A20704703464DF832
:10FF300004ED00221846FFF7F7FF002810D903EB65
:10FF4000820000F57040D0F80001884202D11046CE
:10FF50005DF804FB521C1846FFF7E6FF9042EED80E
:10FF60004FF0FF305DF804FB00EB810000F57040BE
:10FF7000D0F8001241F00101C0F80012704700EB08
:10FF8000810000F57040D0F8001221F00101C0F8A6
:10FF90000012704700EB810000F57040D0F80002BD
:10FFA00000F00100704700EB810000F57040D0F8D0
:10FFB000001262F34101C0F80012704700EB8100AB
:10FFC00000F57040D0F80002C0F34000704700EB2D
:10FFD000810000F57040D0F880027047490101EBC4
:10FFE0008201084400F5744003607047490101EB49
:10FFF0008201084400F574400068704730B4DDF8B1
:02000004FC11ED
:1000000008C0049D039C120542EAC36200EBC110C4
:1000100042EA8C626B1E42EA041200F578401A43F1
:10002000026030BC70472DE9F00183B04FF0000C46
:10003000CDF800C0CDF804C0002B12D91F266D46A4
:1000400012F80C4006EACC0704FA07F72CF0030478
:1000500055F8048047EA08072F510CF1010C9C4524
:10006000EED3042B00EBC11003D901994FF6140213
:1000700081504FF610020099815003B0BDE8F001A5
:10008000704730B482B000EBC1104FF618014158F0
:100090000091042B03D94FF61C0140580190002019
:1000A000002B0ED91F216C4620F0030C01EAC0057D
:1000B00054F80CC02CFA05FC02F800C0401C984211
:1000C000F2D302B030BC704700EBC1114FF6040010
:1000D0000844016841F001010160704700EBC11163
:1000E0004FF604000844016821F0010101607047E7
:1000F00000EBC1104FF60401405800F001007047BA
:1001000000EBC1104FF608014058704709207047B6
:1001100004207047062070470820704700210160C6
:10012000064941600121816000207047704702F05C
:10013000F5BF0020704700207047000000004CFC15
:100140008446104610B5994201D80C4600E01C4682
:1001500001462246604603F04EEF204610BD0000E7
:1001600031B50024009931B1096821B1684602F027
:10017000B4FD204638BD142038BD2DE9F8430646AD
:10018000884600250095042E02DB0020BDE8F88398
:10019000304601F040FB28B1404601F0F2FA0090F1
:1001A000BDE8F883304601F010FD50B3304601F051
:1001B00041FB074607F10C044146304602F069FD59
:1001C0000146009001B3207A042825D0012852D09E
:1001D000052850D002284ED006284CD0084600F002
:1001E000CEFE20722076207AD0B104281DD0204681
:1001F00000F09DFFE8B120610098FFF7B1FF009586
:1002000039E00020BDE8F883204602F07FFD18BBEE
:10021000204601F06EFD2EE0684602F05EFD2AE009
:100220000098FFF79DFF009525E0684602F055FD18
:1002300021E0F74850F82600416841F480514160C0
:10024000304602F035FE204601F058FE28B120610C
:100250000098FFF785FF00950DE00121204601F091
:10026000F5FA204600F0BBFF40B1206125720098EE
:10027000FFF776FF00950098BDE8F88302206072D2
:1002800087F89C50F7E72DE9F04383B006460C460B
:100290000027B946CDF80890CDF8049046B13568EE
:1002A00035B12868042807D303B01420BDE8F083D3
:1002B00003B01420BDE8F0833CB1C4F80090D6F838
:1002C000048018F1010004D005E003B01420BDE85B
:1002D000F0834FF00008287A60B12070686AE0600F
:1002E0003068006802F082FD10F0010F04D0012098
:1002F000207603E015272DE084F81890287A02284C
:1003000030D006282ED0B8F1000F40D01627C4F800
:10031000049095F860002074C4F8149084F8249038
:1003200001982062686BE061E88FE084B5F84000D6
:100330002085072205F1420104F12A0003F05AEE5C
:1003400095F8490084F83100E86C6063696D286DA8
:10035000E163A0632146304601F054FE03B0384605
:10036000BDE8F08301AA02A9304602F0ECFA074684
:100370000298606095F860002074E86A6061304619
:1003800002F05AFB84F82400286AA060C8E7E869F4
:100390006060BEE710B530B1046824B1206804285D
:1003A00003D3002010BD002010BDD4F88C0090F8BD
:1003B0009C0040B9207A30B1204601F042FB092868
:1003C00003D0012010BD002010BD0020207210BD00
:1003D0000020704700207047F0B58BB084460D4672
:1003E00017461E46BCF1000F08D0DCF800402CB1C7
:1003F0002068042805D30BB01420F0BD0BB01420E6
:10040000F0BDD4F88C0090F89C0010B10BB01B200C
:10041000F0BD207A50B101280BD0052809D0022860
:1004200007D0062805D010200BB0F0BD15200BB06A
:10043000F0BD604601F018F80028F8D1012E01D077
:10044000012000E0002008B1122000E011200290FD
:1004500001208DF8100000200990207A05280ED088
:1004600006280CD0606A00FB05F00390022200967B
:100470003B4602A9204601F026F80BB0F0BD0395DB
:10048000F4E7F0B58BB084460D4617461E46BCF126
:10049000000F08D0DCF800402CB12068042805D3F8
:1004A0000BB01420F0BD0BB01420F0BDD4F88C00BC
:1004B00090F89C0010B10BB01B20F0BD207A50B119
:1004C00001280BD0052809D0022807D0062805D01E
:1004D00010200BB0F0BD15200BB0F0BD604600F051
:1004E000C3FF0028F8D1012E01D0012000E0002038
:1004F00008B1192000E01820029001208DF81000AA
:1005000000200990207A05280ED006280CD0606AB9
:1005100000FB05F00390002200963B4602A920460E
:1005200000F0D1FF0BB0F0BD0395F4E70120704758
:1005300038B104210180C90141808021416000203F
:1005400070471420704770B50D460024042801DB65
:10055000002070BD02F04AFC10F0010F02D0012D06
:1005600000D1012410F0020F00D00124204670BDFC
:10057000012070472DE9F0470F468AB04FF0080878
:10058000042803DB0AB01420BDE8F08701F052F91B
:1005900000F10C0601250024A9464FF00D0A029433
:1005A0000394049405940694079408940994CDF850
:1005B00004A08DF80C9070890004029001A93046C7
:1005C00001F0C9FA0498C0F343200499C1F3002252
:1005D000874201D1012A08D028466D1CB0F5704F22
:1005E000DDD30AB04046BDE8F0874FF00008F8E7D9
:1005F0002DE9F0418AB003460C46164653B11D68FA
:1006000045B12868042807D314200AB0BDE8F0815A
:10061000C8BC11FC1420F8E7287A062803D0022869
:1006200001D01620F1E7184600F01EFF0028ECD19B
:1006300001278DF80C708046CDF82080029423208D
:10064000019001A9284601F086FA0028DDD1287A18
:10065000062817D0701E04EB402002902420019041
:1006600001A9284601F077FA0028CED10897CDF8E5
:1006700008802620019001A9284601F06CFA2C4937
:1006800020B107E0A019401E0290E7E7049A0A4251
:1006900000D00F200728B8D10498084201D00F20BD
:1006A000B3E7284601F0E4F90728FAD0ADE730B106
:1006B000006820B10168042903D314207047142076
:1006C0007047017A062901D016207047194901F0B8
:1006D0001ABE30B1016821B10A68042A03D314207C
:1006E000704714207047097A022903D0062901D0E7
:1006F0001620704702F0B9B91620704700280CD0B8
:100700008178022901D0062907D1B0F900200A49D1
:100710000A6082780A718088C88070471620704706
:1007200018B102680AB102F0CDB914207047000078
:100730000080FFFD0001A203A45D01F82DE9F04750
:1007400084B082460F4690469946002400200390CC
:100750000126634D287818B9FCF7EFFE00B92E701A
:100760002878012804D0092404B02046BDE8F08789
:1007700003A80096019043463A4649465046FCF786
:10078000EFFE0028F0D00924EEE72DE9FF43814673
:1007900081B00F4698460024514E0125307818B993
:1007A000FCF7CBFE00B935703078012804D009245D
:1007B00005B02046BDE8F083009503AB3A464146BC
:1007C0004846FCF706FF0028F2D00924F0E72DE99F
:1007D000F04F824685B0894615461F46DDF83880C1
:1007E00000240126049600200390DFF8F4B09BF863
:1007F000000020B9FCF7A1FE08B98BF800609BF857
:100800000000012804D0092405B02046BDE8F08F7F
:1008100004A80096019003AB4A4641465046FCF7B7
:100820009FFE0028F0D19DF80C00A84307EA0501BF
:100830000843039003AB00964A4641465046FCF7F6
:10084000C8FE0028E0D00924DEE72DE9F84F8146F4
:10085000884616460A9F9A460024214D287820B9DA
:10086000FCF76BFE08B9012028702878012803D016
:1008700009242046BDE8F88F009653464246394683
:100880004846FCF7A6FE0028F3D00924F1E72DE93D
:10089000F047814684B0884616469A460C9F00244D
:1008A000002003900E4D287820B9FCF746FE08B9C9
:1008B000012028702878012804D0092404B020469B
:1008C000BDE8F08703A8009601905346424639469A
:1008D0004846FCF745FE0028F0D00924EEE700006A
:1008E000AC5D01F82DE9F04F85B000220026002410
:1008F000002504954FF4817003904FF4827A02959D
:100900005C4F387818B105B01046BDE8F08FDFF8BD
:100910006891C9F80050C9F80450C9F80850C9F8DE
:100920000C50C9F81050C9F81450C9F81850C9F83B
:100930001C50C9F8205009F1240B4FF00108032C7A
:100940003DD20495002304AA51463046FFF7F6FE37
:1009500018B99DF81000512801D000222CE003990D
:100960000422009502AB3046FFF791FF02461AB110
:1009700005B01046BDE8F08F9DF80B3004EB440144
:1009800049F8213009EB81019DF8090048609DF884
:1009900008C0C1F808C04BF82460012B03D030B95F
:1009A000C1F8048003E0022801D2401C4860601CAA
:1009B000C4B27878401C7870B61C0A2EBFD387F872
:1009C000008005B01046BDE8F08F6FF00041294A65
:1009D000137813B15278904201D3084670472649E4
:1009E00000EB400051F8200070470021214A1378A5
:1009F00013B15278904201D3084670471E4900EB6C
:100A0000400001EB80004068C0B2704729B1194A2C
:100A1000137813B15278904201D316207047164ACA
:100A200000EB400052F820300B6002EB800042687F
:100A30004A6080688860002070475AB10D4B93F877
:100A400000C0BCF1000F05D05B78984202D20129AA
:100A50000A4B02D94FF01600704705D153F8200019
:100A600000F10100106002E053F8200010604FF028
:100A700000007047AD5D01F840B611FC64B611FC92
:100A8000FE4951F82000D0F8840100F0010000B1C7
:100A90000120FB49C0B24870704700207047F848F9
:100AA00000787047F64A01211170111D51F820009D
:100AB000D0F8401141F00101C0F840117047F04AF0
:100AC00000211170111D51F82000D0F8401121F0C3
:100AD0000101C0F840117047EA4800684FEA107001
:100AE000042801D2E8487047E848704798B10128C7
:100AF00010D1E748016821F4410121F07F4141F024
:100B000080010160016821F4410121F07F4141F041
:100B1000010101607047DF480168012101607047F1
:100B200068B101280AD1DA480168DB4A01EA02010A
:100B300001600168D94A01EA020101607047D548A5
:100B400001680021016070477047CC4A52F82010BC
:100B5000D1F8403143F00203C1F8403152F820008F
:100B6000D0F8401111F0020FFAD1704710B50446C9
:100B7000CB4A022111710020FFF7B8FF012000F0DD
:100B8000D5F90020FFF7CCFF012000F0CFF9204677
:100B9000FFF7DBFFB94A4FF0004152F82420C2F8BA
:100BA00084117023602281212046FEF7D4FDBDE828
:100BB0001040C9E77047704710B50446FF23002274
:100BC00084212046FEF7C7FDFF230022872120460F
:100BD000FEF7C1FDBDE81040642000F0B4B910B5C7
:100BE0000446FF23002291212046FEF7B4FDFF2397
:100BF000002293212046FEF7AEFDBDE810406420A0
:100C000000F0A1B931B1012909D11823082204212A
:100C1000FEF7A1BD182300220421FEF79CBD7047FA
:100C2000704710B504462046FFF7C6FF2046FFF781
:100C3000D6FF022300220A212046FEF78CFD042362
:100C400000220A212046FEF786FD102384211A4641
:100C50002046FEF780FD202384211A462046FEF719
:100C60007AFDBDE810400A2000F060B910B50446D6
:100C70001023002284212046FEF76DFD2023002250
:100C800084212046FEF767FDBDE810400A2000F0F1
:100C90004DB910B504462046FFF78EFF2046FFF7FA
:100CA0009EFF022384211A462046FEF754FD0123AD
:100CB00084211A462046FEF74EFDBDE81040322042
:100CC00000F034B910B504462046FFF775FF204602
:100CD000FFF785FF0223002284212046FEF73BFD1B
:100CE0000123002284212046FEF735FDBDE8104097
:100CF000322000F01BB910B58721FEF706FDC0F3C6
:100D0000400010BD10B58721FEF7FFFC00F0010088
:100D100010BD2DE9F04180460027012408251AE086
:100D200000228121204600F01CF9072C7ED008DC2F
:100D3000012C2DD0022C34D0052C4DD0062C08D1FE
:100D400064E0092C73D0102C72D0112C71D0122CAD
:100D500001D007251124122C03D038467F1C6428AB
:100D6000DED3642F0CD3122C0AD007254046FFF7A0
:100D700023FF4046FFF733FF00214046FFF742FFC5
:100D8000002195202A4600F0ECF82846BDE8F081C5
:100D900001214046FFF736FF4046FFF742FF02249D
:100DA000D9E700264046FFF7A6FFC0B2012809D0C8
:100DB000962000F0BBF8701CC6B2062EF2D1022CB1
:100DC00005D005E00A2000F0B1F80524F7E7062475
:100DD0004046FFF74BFFBEE74046FFF75AFF40464D
:100DE000FFF790FFC4B24046FFF76CFF4046FEF7A6
:100DF0007AFC10B102251124ADE71CB1012C03D0FF
:100E00001024A8E70924A6E70724A4E74046FFF733
:100E100040FF4046FFF776FFC4B24046FFF752FF5F
:100E20004046FEF760FC38B1022503E00DE00FE01C
:100E300011E013E011248EE71CB1012C03D0102423
:100E400089E7092487E7072485E70225112482E73B
:100E5000002511247FE7072511247CE74046FFF792
:100E6000ABFE4046FFF7BBFE00214046FFF7CAFE3F
:100E700015B94046FEF73FFC12246CE7B45D01F85B
:100E8000B05D01F8E0E04BFCC8B042FCC85080FE09
:100E90004052A5F9800440FC7FFF3E00FEFF3E006B
:100EA00070B611FC044800684FEA1070042801D2A3
:100EB0000120704700207047E0E04BFC02F0E4B9ED
:100EC00010B5FFF7FBFF012010BD7047012806D0C9
:100ED000022803D11E4801680121016070471D48A6
:100EE000016821F4410121F07F4141F0800101605E
:100EF000016821F4410121F07F4141F001010160CD
:100F00007047012806D0022803D11148016800214A
:100F1000016070470F4801680F4A01EA0201016051
:100F200001680E4A01EA02010160704770B505468A
:100F30000024002D06D94FF47A7002F0EFF8641CFB
:100F4000AC42F8D370BD02F0E9B8704770470000BA
:100F5000800440FC4052A5F97FFF3E00FEFF3E00AA
:100F60007047704701207047F949006851F8201018
:100F7000486B00F400000028FAD00020704770B5DC
:100F8000054628680468042C01D3002070BDF04E8B
:100F900056F82400016841F001010160204601F08B
:100FA00087FF56F82400416841F480714160204673
:100FB00001F07EFF56F82400416821F40071416081
:100FC000204601F075FF4FF47A7001F0B9FE56F833
:100FD0002400416841F400714160204601F068FF3F
:100FE0004FF47A7001F0ACFE56F82400416821F409
:100FF000404141F400414160204601F059FF28681A
:10100000002100F023FC284602F080F90028BDD121
:101010002846BDE8704001F073BA30B44FF0010CBF
:1010200003681BB2047A022C0AD0062C08D071B1D6
:101030004FF4C871D0F8844064B104FB01F10DE0B5
:1010400011B14FF4FA61F5E741F28831F2E741F26C
:101050008831EFE74CF2503401FB04F1BC4C54F8FA
:1010600023506962816D012902D1406A1FFA80FC18
:1010700002FB0CF054F82310886230BC704710B5A6
:101080008AB002460320019001208DF80C00002157
:101090000891107A02280BD0062809D0029101A9E4
:1010A000104600F058FD0498040C0AB0204610BD0C
:1010B00002242004029001A9104600F04CFDF4E740
:1010C00070B5064608250124304600F0BAFC042815
:1010D00009D0642001F034FE2046641CB0F5002FD6
:1010E000F2D3284670BD0025FBE701680820984B25
:1010F000012253F82130596B01F01A0CBCF1000F9A
:1011000001D00E20704701F02A0CBCF1000F01D075
:101110000D20704701F4807119B18E48986300204A
:1011200070471146521CB1F5002FE4D3704730B51B
:1011300089B00446022000900020019004218DF81F
:10114000081007906946204600F005FD054615B1D8
:1011500009B0284630BD227A6846022A07D0062AFE
:1011600005D00C30214602F0DFFA78B104E00C30F3
:10117000214601F08BFB30B12046FFF780FF6081F4
:1011800009B0284630BD09B0142030BD09B0142084
:1011900030BD70B58AB005464FF400741020019040
:1011A000029401208DF80C000020089001A9284627
:1011B00000F0D1FC064616B9049800F000505EB964
:1011C0006C622968624850F82100C26A64F3101208
:1011D000C262084601F06CFE0AB0304670BDF0B540
:1011E00083B0044626680121204600F0EEFE002868
:1011F0001CD1022060720127A7652046FFF7C9FFB6
:101200000546207A022806D0062804D0012813D0EB
:10121000052811D036E0002194F85D00042807D39A
:10122000204601F066FA054665B3284603B0F0BDD6
:10123000304601F099F925E06763002001900290A3
:1012400001A9204602F0E1F80028EFD19DF808003E
:1012500005280BD00021304601F032FF204602F075
:101260001BFA054645B1284603B0F0BD204602F002
:1012700027FA0028F8D1F1E79DF8050010B12046C3
:1012800002F06FF9204600F0DCFB042800D00925AD
:1012900003B02846F0BD4DF804ED034689B00020A8
:1012A0009AB10C20009001208DF8080001290AD085
:1012B00000200790002001906946184600F04BFC82
:1012C00009B05DF804FB0120F3E70129F8D11846C5
:1012D000FFF7F6FE09B05DF804FB2DE9F84F8246F2
:1012E0000C4615464FF00008DAF800700020009018
:1012F00014F0030F0ED0002674B1DFF85490002DC7
:1013000034DD59F82710486B00F02A023AB14FF04B
:101310000D082BE00126EFE70D20BDE8F88F1DB387
:1013200000F4001202B300F4004058B156B1009529
:101330006A462146384601F072FE0098291A0C448C
:10134000054611E0D1F8801036B12160241D0AE075
:10135000C8BC11FCFF07800100202170090A641C31
:10136000401C0428F9D32D1F002DCADCB8F10D0F45
:1013700002D1504600F0DBFC59F82710FA48886388
:101380004046BDE8F88F2DE9F84F0C4615464FF062
:101390000008002106680020009014F0030F14D00C
:1013A0000027A4B1DFF8C493DFF8BCA359F82600E6
:1013B000C0F838A0002D3DDD59F82630596B01F0FA
:1013C0001A0038B14FF00E0834E00127E9E70E208B
:1013D000BDE8F88F65B301F4803048BB01F480406C
:1013E00080B17FB1202D0DDB00956A462146304645
:1013F00001F02BFE0098291A0C44054659F82600E6
:10140000416B15E02FB12068C3F88000241D2D1F0B
:101410000EE00022002094F800C00CFA00FC4CEA18
:101420000202641C08302028F5D3C3F880202D1F49
:10143000002DC1DCB8F1000F0FD101F4807060B94C
:1014400059F8260001F01A0111B14FF00E0804E01E
:10145000416B01F48072002AF4D059F82600C0F8DC
:1014600038A04046BDE8F88F20B101684268531C9F
:1014700002D002E01420704700224B68934201D151
:1014800000207047097A022903D0062901D01620CE
:10149000704701F037BA30B589B004460D4637229F
:1014A000009262891204019201228DF80820002224
:1014B00007926946204600F04EFB2946204600F080
:1014C0004AFB09B030BD2DE9FF4F044685B08A467E
:1014D0001546DDF848904FF000080027D4F88C60DE
:1014E00001204A4620EA5500014604902046FFF7B5
:1014F00094FD0390039830B3BB46CDF804B0CDF80B
:1015000008B0A06D08B1D4F82490ADF80490012083
:101510008DF8090015F0020F01D08DF80800D6F8FB
:10152000A01009B18DF8060015F0020F03D0206855
:1015300001A901F0F0FC15F0010F09D05146204639
:10154000FFF7A9FF08E01420206109B0BDE8F08F83
:101550005146204600F0FFFADAF80C1011F0806FC7
:1015600004D01D20206109B0BDE8F08F00283DD1D6
:10157000D6F8A000C0B115F0020F01D0012300E0A1
:101580000223D6F8A8C0039A30460899E0470746D8
:1015900057B915F0020F03D1206801A901F0BBFC77
:1015A0002046FFF7A2FD8046D6F8A00000B1EFB1BB
:1015B00015F0020F06D0039A08993046FFF78DFE0A
:1015C00080460BE08DF806B001A9206801F0A3FC6D
:1015D000039A30460899FFF7D6FE8046CDF804B04E
:1015E000CDF808B001A9206801F095FC15F0010FB5
:1015F00005D1DAF8000012280CD019280AD00022F0
:1016000004992046FFF747FE8146D6F8A00070B146
:1016100017B10CE00122F3E715F0020F01D0012110
:1016200000E00221D6F8AC20304690478046B8F161
:10163000000F04D04046206109B0BDE8F08F484655
:10164000F9E730B589B004460A20009060890004AB
:10165000019004208DF8080000200790694620467C
:1016600000F079FA054615B109B0284630BD227A56
:10167000022A04D0062A02D009B0142030BD214627
:1016800003A801F003F910B109B0284630BD09B034
:10169000142030BD70B50446206805B200263449D8
:1016A000204600F030FE00282DD13146284600F0BB
:1016B0005BFF0021204600F088FC002823D1204653
:1016C00000F01CFC00281ED12046FFF7BAFF0028BE
:1016D00019D1264850F82500416841F480514160F5
:1016E000284601F0E5FB0121204600F0AFF8204636
:1016F000FFF775FD002806D1022161720021D4F8A0
:101700008C2082F89C1070BD2DE9F04106463046D1
:1017100000F090F8054635B305F10C0454B3607A37
:1017200001282CD002282AD09021204602F0C8FCA3
:10173000C4F88C5026602E6001272F7101220021F1
:10174000304601F0FFFA01F0A5FC26606772A7653C
:101750000020D4F88C10C1F8A000284600F02DFA23
:101760000120BDE8F08106E0FF078001C8BC11FC44
:101770000000B70301E00020F3E70020F1E70120BB
:10178000EFE72DE9F0418046294E376800253846BD
:1017900000F050F800F10C04042F35D23846FFF762
:1017A000B3FF002830D04146384601F072FA0546B2
:1017B000D5B1207A012827D0052825D0022823D0AA
:1017C000062821D030792072F0886081207A207636
:1017D000207A88B12046FFF75DFF90B1206128464E
:1017E000FEF7BEFC00250FE0204601F08FFA58B945
:1017F000204600F07EFA07E02846FEF7B1FC0025FF
:1018000002E04FF0FF30606015B90020306070607A
:101810002846BDE8F08106490A68824204D1087969
:10182000022803D0062801D000207047012070470D
:10183000A45D01F8042801D30020704700EB4001AB
:1018400001EBC000FE4901EB00107047F8B50546FA
:101850000F462E682C7A304601F019FB0246062FFF
:1018600041D2DFE807F0061C1C1C0C0344F6206084
:101870003BE04FF4C870022185F85F1035E0022C80
:1018800006D0062C04D0012C06D0052C04D006E08E
:10189000042085F85F0002E0012085F85F00022C3B
:1018A00008D0062C06D0012C13D0052C11D044F6FC
:1018B00020601AE095F85F00042804D0032805D0C2
:1018C00044F6206011E04CF620300EE046F29050D5
:1018D0000BE095F85F00012802D046F2A81004E062
:1018E0004CF2503001E044F62060904200D31046A4
:1018F000009004226946304601F024FA0098C5F8A9
:101900008400F8BD2DE9F04106680124CD4F57F859
:101910002600406B00F0800038B90A2001F010FA70
:101920002046641CB0F5487FF1D3B4F5487F15D24A
:10193000802057F826108863651CB4F5487F0DD2C7
:1019400057F82600406B00F0800050B10A2001F0EB
:10195000F7F928466D1CB0F5487FF1D30620BDE8A5
:10196000F0810020BDE8F0812DE9F00100260A7A1F
:101970002AB3042A1BD04FF0010C01F10C03002202
:10198000BCF1000F0DD91427AE4D046807EB820897
:1019900055F8244054F808401C601B1D521C624539
:1019A000F3D30868342805D0352803D007E04FF07A
:1019B000040CE2E7C86810F44F4F00D00B26304605
:1019C000BDE8F001704770B402460120146801239D
:1019D0009C4D55F824C0DCF8342002F040067EB15E
:1019E0004020CCF83800002002F4000333B34FF459
:1019F000000355F824C0CCF838300023CB611DE03B
:101A000002F0040626B10420CCF83800022015E0CC
:101A100002F001066EB10868292808D0012806D016
:101A2000052804D004200123CCF8383006E000203B
:101A3000F9E71E465B1CB6F5002FCCD30A6270BCDA
:101A4000704710B58AB009240D21019101218DF84C
:101A50000C100021089141890904029101A900F0AC
:101A60007AF810B90498C0F343240AB0204610BD98
:101A70002DE9F04180460726D8F800500124714F27
:101A800057F82500406B00F4000030B14FF400001F
:101A900057F825108863002607E00A2001F050F966
:101AA0002046641CB0F5002FEAD32EB14046FFF764
:101AB000C8FF042800D100263046BDE8F08130B5CB
:101AC0000C4685B00568002200200090019002902D
